{
  "_format": "hh-sol-artifact-1",
  "contractName": "Prime",
  "sourceName": "contracts/PrimeMembership/Prime.sol",
  "abi": [
    {
      "inputs": [],
      "stateMutability": "nonpayable",
      "type": "constructor"
    },
    {
      "anonymous": false,
      "inputs": [
        {
          "indexed": false,
          "internalType": "uint256",
          "name": "oldValue",
          "type": "uint256"
        },
        {
          "indexed": false,
          "internalType": "uint256",
          "name": "newValue",
          "type": "uint256"
        }
      ],
      "name": "BlocksPerDayUpdated",
      "type": "event"
    },
    {
      "anonymous": false,
      "inputs": [
        {
          "indexed": false,
          "internalType": "address",
          "name": "oldValue",
          "type": "address"
        },
        {
          "indexed": false,
          "internalType": "address",
          "name": "newValue",
          "type": "address"
        }
      ],
      "name": "FeeCollectorChanged",
      "type": "event"
    },
    {
      "anonymous": false,
      "inputs": [
        {
          "indexed": false,
          "internalType": "uint8",
          "name": "version",
          "type": "uint8"
        }
      ],
      "name": "Initialized",
      "type": "event"
    },
    {
      "anonymous": false,
      "inputs": [
        {
          "indexed": true,
          "internalType": "address",
          "name": "member",
          "type": "address"
        }
      ],
      "name": "MemberBlacklisted",
      "type": "event"
    },
    {
      "anonymous": false,
      "inputs": [
        {
          "indexed": true,
          "internalType": "address",
          "name": "member",
          "type": "address"
        }
      ],
      "name": "MemberCreated",
      "type": "event"
    },
    {
      "anonymous": false,
      "inputs": [
        {
          "indexed": true,
          "internalType": "address",
          "name": "member",
          "type": "address"
        }
      ],
      "name": "MemberWhitelisted",
      "type": "event"
    },
    {
      "anonymous": false,
      "inputs": [
        {
          "indexed": true,
          "internalType": "address",
          "name": "previousOwner",
          "type": "address"
        },
        {
          "indexed": true,
          "internalType": "address",
          "name": "newOwner",
          "type": "address"
        }
      ],
      "name": "OwnershipTransferred",
      "type": "event"
    },
    {
      "anonymous": false,
      "inputs": [
        {
          "indexed": false,
          "internalType": "uint256",
          "name": "oldValue",
          "type": "uint256"
        },
        {
          "indexed": false,
          "internalType": "uint256",
          "name": "newValue",
          "type": "uint256"
        }
      ],
      "name": "PenaltyRatePerDayUpdated",
      "type": "event"
    },
    {
      "anonymous": false,
      "inputs": [
        {
          "indexed": false,
          "internalType": "uint256",
          "name": "oldValue",
          "type": "uint256"
        },
        {
          "indexed": false,
          "internalType": "uint256",
          "name": "newValue",
          "type": "uint256"
        }
      ],
      "name": "ProtocolRateChanged",
      "type": "event"
    },
    {
      "anonymous": false,
      "inputs": [
        {
          "indexed": true,
          "internalType": "address",
          "name": "member",
          "type": "address"
        },
        {
          "indexed": false,
          "internalType": "uint256",
          "name": "score",
          "type": "uint256"
        }
      ],
      "name": "RiskScoreChanged",
      "type": "event"
    },
    {
      "inputs": [
        {
          "internalType": "address[]",
          "name": "stablecoins",
          "type": "address[]"
        },
        {
          "internalType": "uint256",
          "name": "blocksPerDay_",
          "type": "uint256"
        },
        {
          "internalType": "uint256",
          "name": "penaltyRatePerDay_",
          "type": "uint256"
        }
      ],
      "name": "__Prime_init",
      "outputs": [],
      "stateMutability": "nonpayable",
      "type": "function"
    },
    {
      "inputs": [],
      "name": "availableAssets",
      "outputs": [
        {
          "internalType": "address[]",
          "name": "",
          "type": "address[]"
        }
      ],
      "stateMutability": "view",
      "type": "function"
    },
    {
      "inputs": [
        {
          "internalType": "address",
          "name": "_member",
          "type": "address"
        }
      ],
      "name": "blacklistMember",
      "outputs": [],
      "stateMutability": "nonpayable",
      "type": "function"
    },
    {
      "inputs": [],
      "name": "blocksPerDay",
      "outputs": [
        {
          "internalType": "uint256",
          "name": "",
          "type": "uint256"
        }
      ],
      "stateMutability": "view",
      "type": "function"
    },
    {
      "inputs": [
        {
          "internalType": "uint256",
          "name": "interestRate",
          "type": "uint256"
        },
        {
          "internalType": "uint256",
          "name": "interval",
          "type": "uint256"
        }
      ],
      "name": "borrowRate",
      "outputs": [
        {
          "internalType": "uint256",
          "name": "",
          "type": "uint256"
        }
      ],
      "stateMutability": "view",
      "type": "function"
    },
    {
      "inputs": [
        {
          "internalType": "address",
          "name": "_member",
          "type": "address"
        },
        {
          "internalType": "uint256",
          "name": "_riskScore",
          "type": "uint256"
        }
      ],
      "name": "changeMemberRiskScore",
      "outputs": [],
      "stateMutability": "nonpayable",
      "type": "function"
    },
    {
      "inputs": [
        {
          "internalType": "uint256",
          "name": "protocolFeeRate_",
          "type": "uint256"
        }
      ],
      "name": "changeProtocolRate",
      "outputs": [],
      "stateMutability": "nonpayable",
      "type": "function"
    },
    {
      "inputs": [
        {
          "internalType": "address",
          "name": "protocolCollector_",
          "type": "address"
        }
      ],
      "name": "changeProtocolRateCollector",
      "outputs": [],
      "stateMutability": "nonpayable",
      "type": "function"
    },
    {
      "inputs": [],
      "name": "feeCollector",
      "outputs": [
        {
          "internalType": "address",
          "name": "",
          "type": "address"
        }
      ],
      "stateMutability": "view",
      "type": "function"
    },
    {
      "inputs": [
        {
          "internalType": "address",
          "name": "asset",
          "type": "address"
        }
      ],
      "name": "isAssetAvailable",
      "outputs": [
        {
          "internalType": "bool",
          "name": "",
          "type": "bool"
        }
      ],
      "stateMutability": "view",
      "type": "function"
    },
    {
      "inputs": [
        {
          "internalType": "address",
          "name": "_member",
          "type": "address"
        }
      ],
      "name": "isMember",
      "outputs": [
        {
          "internalType": "bool",
          "name": "",
          "type": "bool"
        }
      ],
      "stateMutability": "view",
      "type": "function"
    },
    {
      "inputs": [
        {
          "internalType": "address",
          "name": "_member",
          "type": "address"
        }
      ],
      "name": "membershipOf",
      "outputs": [
        {
          "components": [
            {
              "internalType": "uint256",
              "name": "riskScore",
              "type": "uint256"
            },
            {
              "internalType": "enum IPrime.MemberStatus",
              "name": "status",
              "type": "uint8"
            },
            {
              "internalType": "bool",
              "name": "created",
              "type": "bool"
            }
          ],
          "internalType": "struct IPrime.Member",
          "name": "",
          "type": "tuple"
        }
      ],
      "stateMutability": "view",
      "type": "function"
    },
    {
      "inputs": [],
      "name": "owner",
      "outputs": [
        {
          "internalType": "address",
          "name": "",
          "type": "address"
        }
      ],
      "stateMutability": "view",
      "type": "function"
    },
    {
      "inputs": [
        {
          "internalType": "uint256",
          "name": "interval",
          "type": "uint256"
        }
      ],
      "name": "penaltyRate",
      "outputs": [
        {
          "internalType": "uint256",
          "name": "",
          "type": "uint256"
        }
      ],
      "stateMutability": "view",
      "type": "function"
    },
    {
      "inputs": [],
      "name": "penaltyRatePerDay",
      "outputs": [
        {
          "internalType": "uint256",
          "name": "",
          "type": "uint256"
        }
      ],
      "stateMutability": "view",
      "type": "function"
    },
    {
      "inputs": [],
      "name": "protocolFeeRate",
      "outputs": [
        {
          "internalType": "uint256",
          "name": "",
          "type": "uint256"
        }
      ],
      "stateMutability": "view",
      "type": "function"
    },
    {
      "inputs": [],
      "name": "renounceOwnership",
      "outputs": [],
      "stateMutability": "nonpayable",
      "type": "function"
    },
    {
      "inputs": [
        {
          "internalType": "address",
          "name": "_requester",
          "type": "address"
        }
      ],
      "name": "requestMembership",
      "outputs": [],
      "stateMutability": "nonpayable",
      "type": "function"
    },
    {
      "inputs": [
        {
          "internalType": "address",
          "name": "newOwner",
          "type": "address"
        }
      ],
      "name": "transferOwnership",
      "outputs": [],
      "stateMutability": "nonpayable",
      "type": "function"
    },
    {
      "inputs": [
        {
          "internalType": "uint256",
          "name": "newValue",
          "type": "uint256"
        }
      ],
      "name": "updateBlocksPerDay",
      "outputs": [],
      "stateMutability": "nonpayable",
      "type": "function"
    },
    {
      "inputs": [
        {
          "internalType": "uint256",
          "name": "newValue",
          "type": "uint256"
        }
      ],
      "name": "updatePenaltyRatePerDay",
      "outputs": [],
      "stateMutability": "nonpayable",
      "type": "function"
    },
    {
      "inputs": [
        {
          "internalType": "address",
          "name": "_member",
          "type": "address"
        },
        {
          "internalType": "uint256",
          "name": "_riskScore",
          "type": "uint256"
        }
      ],
      "name": "whitelistMember",
      "outputs": [],
      "stateMutability": "nonpayable",
      "type": "function"
    }
  ],
  "bytecode": "0x608060405234801561001057600080fd5b50600054610100900460ff16158080156100315750600054600160ff909116105b8061005c575061004a3061013260201b610e671760201c565b15801561005c575060005460ff166001145b6100c35760405162461bcd60e51b815260206004820152602e60248201527f496e697469616c697a61626c653a20636f6e747261637420697320616c72656160448201526d191e481a5b9a5d1a585b1a5e995960921b606482015260840160405180910390fd5b6000805460ff1916600117905580156100e6576000805461ff0019166101001790555b801561012c576000805461ff0019169055604051600181527f7f26b83ff96e1f2b6a682f133852f6798a09c465da95921460cefb38474024989060200160405180910390a15b50610141565b6001600160a01b03163b151590565b61157780620001516000396000f3fe608060405234801561001057600080fd5b50600436106101425760003560e01c80638da5cb5b116100b8578063c6a5d5da1161007c578063c6a5d5da146102a2578063cadff36f146102b5578063e75594b8146102c8578063f2fde38b146102d1578063f6c2e560146102e4578063ff58ae1e146102f757600080fd5b80638da5cb5b14610231578063a230c52414610256578063a8ce6bbd14610269578063ad5847261461027c578063c415b95c1461028f57600080fd5b80634cfea68a1161010a5780634cfea68a146101c05780634df0b506146101d757806358f85880146101ea578063715018a6146101f3578063715e3021146101fb578063723ae6fd1461020e57600080fd5b806305a570a8146101475780630fe7b7bb1461017057806320124bce1461018557806329ea47bb1461019a5780632c2e4771146101ad575b600080fd5b61015a610155366004611201565b61030a565b6040516101679190611232565b60405180910390f35b61018361017e366004611277565b610399565b005b61018d6104d5565b60405161016791906112a1565b6101836101a83660046112ee565b6104e6565b6101836101bb36600461131d565b6105f2565b6101c960695481565b604051908152602001610167565b6101836101e5366004611201565b610703565b6101c9606c5481565b610183610824565b610183610209366004611277565b610838565b61022161021c366004611201565b6109a7565b6040519015158152602001610167565b6033546001600160a01b03165b6040516001600160a01b039091168152602001610167565b610221610264366004611201565b6109f4565b6101c96102773660046112ee565b610a42565b6101c961028a3660046113f2565b610a7e565b606d5461023e906001600160a01b031681565b6101836102b03660046112ee565b610ad3565b6101836102c3366004611201565b610b59565b6101c9606a5481565b6101836102df366004611201565b610c2e565b6101836102f2366004611201565b610ca7565b6101836103053660046112ee565b610de1565b6040805160608082018352600080835260208084018290528385018290526001600160a01b0386168252606b8152908490208451928301909452835482526001840154929391929083019060ff1660028111156103695761036961121c565b600281111561037a5761037a61121c565b815260019190910154610100900460ff16151560209091015292915050565b816001600160a01b0381166103c95760405162461bcd60e51b81526004016103c090611414565b60405180910390fd5b6001600160a01b0383166000908152606b60205260409020600101548390610100900460ff166104215760405162461bcd60e51b81526020600482015260036024820152624e504d60e81b60448201526064016103c0565b610429610e76565b6064831115801561043a5750600083115b61046c5760405162461bcd60e51b815260206004820152600360248201526252534960e81b60448201526064016103c0565b6001600160a01b0384166000908152606b60205260409020805484146104ce578381556040518481526001600160a01b038616907fc11794e295293b0555bba7e077274bbdc4988a5fbd20fa8f875163c6e0ecfcca9060200160405180910390a25b5050505050565b60606104e16065610ed0565b905090565b6104ee610e76565b6000811180156105065750670de0b6b3a76400008111155b6105385760405162461bcd60e51b815260206004820152600360248201526250524960e81b60448201526064016103c0565b606d546001600160a01b03166105765760405162461bcd60e51b815260206004820152600360248201526250435360e81b60448201526064016103c0565b606c54818114156105af5760405162461bcd60e51b815260206004820152600360248201526229a0a960e91b60448201526064016103c0565b606c82905560408051828152602081018490527f99655b8bd2996203f442454f8d10f7f51ef1e3a1afbfdb9be8c83cfb9c211aa891015b60405180910390a15050565b600054610100900460ff16158080156106125750600054600160ff909116105b8061062c5750303b15801561062c575060005460ff166001145b6106485760405162461bcd60e51b81526004016103c090611431565b6000805460ff19166001179055801561066b576000805461ff0019166101001790555b6000831161068b5760405162461bcd60e51b81526004016103c09061147f565b600082116106ab5760405162461bcd60e51b81526004016103c09061147f565b6106b6848484610f36565b80156106fd576000805461ff0019169055604051600181527f7f26b83ff96e1f2b6a682f133852f6798a09c465da95921460cefb3847402498906020015b60405180910390a15b50505050565b806001600160a01b03811661072a5760405162461bcd60e51b81526004016103c090611414565b6001600160a01b0382166000908152606b60205260409020600101548290610100900460ff166107825760405162461bcd60e51b81526020600482015260036024820152624e504d60e81b60448201526064016103c0565b61078a610e76565b6001600160a01b0383166000908152606b602052604090206002600182015460ff1660028111156107bd576107bd61121c565b14156107db5760405162461bcd60e51b81526004016103c09061149c565b60018101805460ff191660021790556040516001600160a01b038516907f0980e8fb3e23ceaaed73ff0de40847dfa8c9e43aa49f7f689fa660a1a92eadaf90600090a250505050565b61082c610e76565b6108366000611081565b565b816001600160a01b03811661085f5760405162461bcd60e51b81526004016103c090611414565b610867610e76565b6001600160a01b0383166000908152606b602052604090206001810154610100900460ff166108995761089984610ca7565b60018082015460ff1660028111156108b3576108b361121c565b14156108d15760405162461bcd60e51b81526004016103c09061149c565b606483111580156108e25750600083115b6109145760405162461bcd60e51b815260206004820152600360248201526252534960e81b60448201526064016103c0565b6001818101805460ff191690911790556040516001600160a01b038516907fbd7a4b880bfb037ef981159fb51a5b65887258bced43263d699b2abbdddaf21290600090a2805483146106fd578281556040518381526001600160a01b038516907fc11794e295293b0555bba7e077274bbdc4988a5fbd20fa8f875163c6e0ecfcca9060200160405180910390a250505050565b6000816001600160a01b0381166109d05760405162461bcd60e51b81526004016103c090611414565b6001600160a01b03831660009081526065602052604090205460ff165b9392505050565b6001600160a01b0381166000908152606b602052604081206001810154610100900460ff1680156109ed575060018082015460ff166002811115610a3a57610a3a61121c565b149392505050565b6000806201518083606954610a5791906114cf565b610a6191906114ee565b905060695481606a54610a7491906114cf565b6109ed91906114ee565b6000806201518083606954610a9391906114cf565b610a9d91906114ee565b9050600060695461016d610ab191906114cf565b905080610abe83876114cf565b610ac891906114ee565b925050505b92915050565b610adb610e76565b60008111610afb5760405162461bcd60e51b81526004016103c09061147f565b60695481811415610b1e5760405162461bcd60e51b81526004016103c09061149c565b606982905560408051828152602081018490527f31fb751810bb8256ad90a80bebd8458281936dffd28e92989b58786ebb77c46e91016105e6565b806001600160a01b038116610b805760405162461bcd60e51b81526004016103c090611414565b610b88610e76565b606d546001600160a01b03908116908316811415610bce5760405162461bcd60e51b815260206004820152600360248201526229a0a960e91b60448201526064016103c0565b606d80546001600160a01b0319166001600160a01b0385811691821790925560408051928416835260208301919091527f649c5e3d0ed183894196148e193af316452b0037e77d2ff0fef23b7dc722bed0910160405180910390a1505050565b610c36610e76565b6001600160a01b038116610c9b5760405162461bcd60e51b815260206004820152602660248201527f4f776e61626c653a206e6577206f776e657220697320746865207a65726f206160448201526564647265737360d01b60648201526084016103c0565b610ca481611081565b50565b806001600160a01b038116610cce5760405162461bcd60e51b81526004016103c090611414565b6001600160a01b0382166000908152606b6020526040902060010154610100900460ff1615610d255760405162461bcd60e51b81526020600482015260036024820152624d414360e81b60448201526064016103c0565b6040805160608101909152600080825260208201908152600160209182018190526001600160a01b0385166000908152606b835260409020835181559183015182820180549192909160ff191690836002811115610d8557610d8561121c565b0217905550604091820151600190910180549115156101000261ff0019909216919091179055516001600160a01b038316907feac79790ec7572f2c7ebd3d58fa84f2bb652383d683c622cb6fddbf2153d82ff90600090a25050565b610de9610e76565b60008111610e095760405162461bcd60e51b81526004016103c09061147f565b606a5481811415610e2c5760405162461bcd60e51b81526004016103c09061149c565b606a82905560408051828152602081018490527f14d8c76e8de6ef1d0ab5c30e258eedbde3d81385d59ff45bf085121f7e626efa91016105e6565b6001600160a01b03163b151590565b6033546001600160a01b031633146108365760405162461bcd60e51b815260206004820181905260248201527f4f776e61626c653a2063616c6c6572206973206e6f7420746865206f776e657260448201526064016103c0565b606081600201805480602002602001604051908101604052809291908181526020018280548015610f2a57602002820191906000526020600020905b81546001600160a01b03168152600190910190602001808311610f0c575b50505050509050919050565b600054610100900460ff1615808015610f565750600054600160ff909116105b80610f705750303b158015610f70575060005460ff166001145b610f8c5760405162461bcd60e51b81526004016103c090611431565b6000805460ff191660011790558015610faf576000805461ff0019166101001790555b610fb76110d3565b6069839055606a82905560005b845181101561103e57610ffa858281518110610fe257610fe2611510565b6020026020010151606561114790919063ffffffff16565b61102c5760405162461bcd60e51b81526020600482015260036024820152622a24a360e91b60448201526064016103c0565b8061103681611526565b915050610fc4565b5080156106fd576000805461ff0019169055604051600181527f7f26b83ff96e1f2b6a682f133852f6798a09c465da95921460cefb3847402498906020016106f4565b603380546001600160a01b038381166001600160a01b0319831681179093556040519116919082907f8be0079c531659141344cd1fd0a4f28419497f9722a3daafe3b4186f6b6457e090600090a35050565b600054610100900460ff1661113e5760405162461bcd60e51b815260206004820152602b60248201527f496e697469616c697a61626c653a20636f6e7472616374206973206e6f74206960448201526a6e697469616c697a696e6760a81b60648201526084016103c0565b61083633611081565b6001600160a01b03811660009081526020839052604081205460ff161561117057506000610acd565b6001600160a01b038216600081815260208581526040808320805460ff1916600190811790915560028801805480830182559085528385200180546001600160a01b031916861790556003880180549585529088019092528220839055906111d783611526565b909155506001949350505050565b80356001600160a01b03811681146111fc57600080fd5b919050565b60006020828403121561121357600080fd5b6109ed826111e5565b634e487b7160e01b600052602160045260246000fd5b81518152602082015160608201906003811061125e57634e487b7160e01b600052602160045260246000fd5b8060208401525060408301511515604083015292915050565b6000806040838503121561128a57600080fd5b611293836111e5565b946020939093013593505050565b6020808252825182820181905260009190848201906040850190845b818110156112e25783516001600160a01b0316835292840192918401916001016112bd565b50909695505050505050565b60006020828403121561130057600080fd5b5035919050565b634e487b7160e01b600052604160045260246000fd5b60008060006060848603121561133257600080fd5b833567ffffffffffffffff8082111561134a57600080fd5b818601915086601f83011261135e57600080fd5b813560208282111561137257611372611307565b8160051b604051601f19603f8301168101818110868211171561139757611397611307565b60405292835281830193508481018201928a8411156113b557600080fd5b948201945b838610156113da576113cb866111e5565b855294820194938201936113ba565b9a918901359950506040909701359695505050505050565b6000806040838503121561140557600080fd5b50508035926020909101359150565b6020808252600390820152624e5a4160e81b604082015260600190565b6020808252602e908201527f496e697469616c697a61626c653a20636f6e747261637420697320616c72656160408201526d191e481a5b9a5d1a585b1a5e995960921b606082015260800190565b60208082526003908201526216959360ea1b604082015260600190565b60208082526003908201526210505160ea1b604082015260600190565b634e487b7160e01b600052601160045260246000fd5b60008160001904831182151516156114e9576114e96114b9565b500290565b60008261150b57634e487b7160e01b600052601260045260246000fd5b500490565b634e487b7160e01b600052603260045260246000fd5b600060001982141561153a5761153a6114b9565b506001019056fea264697066735822122089a204e1903e1a431894e002acf679e5681f34908b334f49b10f69cb7f08f00f64736f6c63430008090033",
  "linkReferences": {},
  "deployedLinkReferences": {}
}